:100349005389F0438901C28DD28C758CFC758A66FC
:07035900D2A9D2AFC2B92204
:10036000EF1FAC0670011E4C600B007D027CC7DCE9
:05037000FEDDFC80EB46
:010375002265
:0603B200C2A58F80D2A756
:0803B8007F027EEFDEFEDFFC98
:0103C000221A
:0A03C100C2A61203B2C2A70203B8DD
:10030E00CFCDCFCECCCE1200E27C007D0A1200E221
:04031E00ED2430FF9B
:0A032200D2A61203B2C2A70203B86C
:10037600AE07BE0104ED148006BE0209ED243F441B
:0603860080FF1203C122FA
:10038C007F381203C17F0C1203C17F061203C17F99
:04039C00010203C196
:0A03CB00AC03120376AF0402032214
:0602EB008B088A09890A54
:1002F100120376E4FDAB08AA09A90A8D8275830071
:0C0301001200A3FF60061203220D80E929
:01030D0022CD
:0C02B8007F0AEA24FFFDE434FFFC7E0016
:0802C4008E0D8F0E8C0F8D10C2
:1002CC007F017E00E4FBEBC39510E50F6480F874AE
:0E02DC008098500AAC0DAD0E1200D00B80E8D9
:0102EA0022F1
:04032C008A0A8B0BA3
:10033000120376AA0CEAD39400400D1202B8AC0A5C
:08034000AD0B12030E1A80ED53
:010348002292
:10020D00120376C3EA64809480400B7F2B12032285
:10021D008A168B17800E7F2D120322C3E49BF517D0
:10022D00E49AF516AA15EAD39400400D1202B8AC63
:09023D0016AD1712030E1A80ED34
:010246002295
:040247008A1A8B1B69
:10024B00120376AA1CEAD3940040297F101202BA3B
:10025B00AC1AAD1BCFCDCFCECCCE1200E2EF540FEC
:10026B00FEC3940AEE5004243080022437FF12039D
:04027B00221A80D1F2
:01027F00225C
:040280008A238B241E
:10028400120376AA25EAD394004028EA24FFFDE469
:1002940034FFFC7F027E001202C4AC23AD24CFCD18
:1002A400CFCECCCE1200E2EF54012430FF12032251
:0302B4001A80D2DB
:0102B7002224
:1003A000436C6F636B3A200020203A20203A2020D3
:0203B0003A0011
:02000300C1003A
:10000E0012038C1203497BFF7A0379A07D017F01D5
:10001E001202EB7BFF7A0379A87D017F021202EBBD
:10002E0020B10E7F0A7E00120360C20030B1FDD2F5
:10003E000020B00C7F0A7E00120360C20030B0FDBB
:10004E0020B2157F0A7E00120360E4F528F529F52B
:10005E0026F52AF52730B2FDE527FB7A00750C024E
:10006E007D017F0212032CE52AFB7A00750C027DBE
:10007E00047F0212032CE526FB7A00750C027D0725
:10008E007F0212032C750C04AB29AA287D0A7F026D
:05009E0012032C808B11
:03000B000201C32C
:1001C300C0E0C0D0758CFC758A663000380529E51F
:1001D3002970020528C394E8E5289403402775286D
:1001E300007529000526E526943C4019752600056F
:1001F3002AE52A943C400E752A000527E527941822
:0A0203004003752700D0D0D0E03290
:03000000020137C3
:0C013700787FE4F6D8FD75812A02017E75
:1000A300BB010CE58229F582E5833AF583E0225012
:1000B30006E92582F8E622BBFE06E92582F8E2225C
:0D00C300E58229F582E5833AF583E4932276
:1000D000EF8DF0A4A8F0CF8CF0A428CE8DF0A42E44
:0200E000FE22FE
:1000E200BC000BBE0029EF8DF084FFADF022E4CC02
:1000F200F875F008EF2FFFEE33FEEC33FCEE9DECCB
:10010200984005FCEE9DFE0FD5F0E9E4CEFD22ED10
:10011200F8F5F0EE8420D21CFEADF075F008EF2F5A
:10012200FFED33FD4007985006D5F0F222C398FD4B
:050132000FD5F0EA22E8
:1001430002000EE493A3F8E493A34003F68001F2C4
:1001530008DFF48029E493A3F85407240CC8C333BD
:10016300C4540F4420C8834004F456800146F6DF8C
:10017300E4800B0102040810204080900003E47E19
:10018300019360BCA3FF543F30E509541FFEE49381
:10019300A360010ECF54C025E060A840B8E493A348
:1001A300FAE493A3F8E493A3C8C582C8CAC583CA73
:1001B300F0A3C8C582C8CAC583CADFE9DEE780BE2B
:0100050000FA
:00000001FF
